{
  "contractName": "Bet",
  "abi": [
    {
      "constant": false,
      "inputs": [],
      "name": "terminate",
      "outputs": [],
      "payable": false,
      "stateMutability": "nonpayable",
      "type": "function"
    },
    {
      "constant": true,
      "inputs": [],
      "name": "timestampMatchEnd",
      "outputs": [
        {
          "name": "",
          "type": "uint256"
        }
      ],
      "payable": false,
      "stateMutability": "view",
      "type": "function"
    },
    {
      "constant": false,
      "inputs": [],
      "name": "close",
      "outputs": [],
      "payable": false,
      "stateMutability": "nonpayable",
      "type": "function"
    },
    {
      "constant": true,
      "inputs": [],
      "name": "timestampAppealsDeadline",
      "outputs": [
        {
          "name": "",
          "type": "uint256"
        }
      ],
      "payable": false,
      "stateMutability": "view",
      "type": "function"
    },
    {
      "constant": false,
      "inputs": [
        {
          "name": "winner",
          "type": "address"
        },
        {
          "name": "team",
          "type": "bool"
        }
      ],
      "name": "withdraw",
      "outputs": [],
      "payable": false,
      "stateMutability": "nonpayable",
      "type": "function"
    },
    {
      "constant": true,
      "inputs": [],
      "name": "timestampArbiterDeadline",
      "outputs": [
        {
          "name": "",
          "type": "uint256"
        }
      ],
      "payable": false,
      "stateMutability": "view",
      "type": "function"
    },
    {
      "constant": false,
      "inputs": [],
      "name": "updateResult",
      "outputs": [],
      "payable": false,
      "stateMutability": "nonpayable",
      "type": "function"
    },
    {
      "constant": true,
      "inputs": [],
      "name": "team1",
      "outputs": [
        {
          "name": "",
          "type": "address"
        }
      ],
      "payable": false,
      "stateMutability": "view",
      "type": "function"
    },
    {
      "constant": false,
      "inputs": [
        {
          "name": "outcome",
          "type": "uint256"
        }
      ],
      "name": "__resolve",
      "outputs": [],
      "payable": false,
      "stateMutability": "nonpayable",
      "type": "function"
    },
    {
      "constant": true,
      "inputs": [],
      "name": "timestampMatchBegin",
      "outputs": [
        {
          "name": "",
          "type": "uint256"
        }
      ],
      "payable": false,
      "stateMutability": "view",
      "type": "function"
    },
    {
      "constant": true,
      "inputs": [],
      "name": "team0",
      "outputs": [
        {
          "name": "",
          "type": "address"
        }
      ],
      "payable": false,
      "stateMutability": "view",
      "type": "function"
    },
    {
      "constant": true,
      "inputs": [],
      "name": "ARBITER_TAX",
      "outputs": [
        {
          "name": "",
          "type": "uint8"
        }
      ],
      "payable": false,
      "stateMutability": "view",
      "type": "function"
    },
    {
      "constant": true,
      "inputs": [],
      "name": "timestampSelfDestructDeadline",
      "outputs": [
        {
          "name": "",
          "type": "uint256"
        }
      ],
      "payable": false,
      "stateMutability": "view",
      "type": "function"
    },
    {
      "constant": true,
      "inputs": [],
      "name": "betState",
      "outputs": [
        {
          "name": "",
          "type": "uint8"
        }
      ],
      "payable": false,
      "stateMutability": "view",
      "type": "function"
    },
    {
      "constant": true,
      "inputs": [],
      "name": "arbiter",
      "outputs": [
        {
          "name": "",
          "type": "address"
        }
      ],
      "payable": false,
      "stateMutability": "view",
      "type": "function"
    },
    {
      "inputs": [
        {
          "name": "_arbiter",
          "type": "address"
        },
        {
          "name": "_team0Name",
          "type": "string"
        },
        {
          "name": "_team1Name",
          "type": "string"
        },
        {
          "name": "_timestamps",
          "type": "uint256[]"
        },
        {
          "name": "_tax",
          "type": "uint8"
        }
      ],
      "payable": false,
      "stateMutability": "nonpayable",
      "type": "constructor"
    },
    {
      "payable": false,
      "stateMutability": "nonpayable",
      "type": "fallback"
    },
    {
      "anonymous": false,
      "inputs": [
        {
          "indexed": false,
          "name": "state",
          "type": "uint8"
        }
      ],
      "name": "StateChanged",
      "type": "event"
    },
    {
      "anonymous": false,
      "inputs": [
        {
          "indexed": false,
          "name": "winner",
          "type": "address"
        },
        {
          "indexed": false,
          "name": "amount",
          "type": "uint256"
        }
      ],
      "name": "Withdraw",
      "type": "event"
    }
  ],
  "bytecode": "0x60606040526000600260146101000a81548160ff021916908360058111156200002457fe5b021790555034156200003557600080fd5b60405162001fcb38038062001fcb833981016040528080519060200190919080518201919060200180518201919060200180518201919060200180519060200190919050508160008151811015156200008a57fe5b9060200190602002015142101515620000a257600080fd5b816001815181101515620000b257fe5b90602001906020020151826000815181101515620000cc57fe5b90602001906020020151101515620000e357600080fd5b816002815181101515620000f357fe5b906020019060200201518260018151811015156200010d57fe5b906020019060200201511015156200012457600080fd5b8160038151811015156200013457fe5b906020019060200201518260028151811015156200014e57fe5b906020019060200201511015156200016557600080fd5b8160048151811015156200017557fe5b906020019060200201518260038151811015156200018f57fe5b90602001906020020151101515620001a657600080fd5b84600260006101000a81548173ffffffffffffffffffffffffffffffffffffffff021916908373ffffffffffffffffffffffffffffffffffffffff16021790555083620001f262000454565b8080602001828103825283818151815260200191508051906020019080838360005b838110156200023157808201518184015260208101905062000214565b50505050905090810190601f1680156200025f5780820380516001836020036101000a031916815260200191505b5092505050604051809103906000f08015156200027b57600080fd5b6000806101000a81548173ffffffffffffffffffffffffffffffffffffffff021916908373ffffffffffffffffffffffffffffffffffffffff16021790555082620002c562000454565b8080602001828103825283818151815260200191508051906020019080838360005b8381101562000304578082015181840152602081019050620002e7565b50505050905090810190601f168015620003325780820380516001836020036101000a031916815260200191505b5092505050604051809103906000f08015156200034e57600080fd5b600160006101000a81548173ffffffffffffffffffffffffffffffffffffffff021916908373ffffffffffffffffffffffffffffffffffffffff1602179055508160008151811015156200039e57fe5b90602001906020020151600381905550816001815181101515620003be57fe5b90602001906020020151600481905550816002815181101515620003de57fe5b90602001906020020151600581905550816003815181101515620003fe57fe5b906020019060200201516006819055508160048151811015156200041e57fe5b9060200190602002015160078190555080600860006101000a81548160ff021916908360ff160217905550505050505062000465565b604051610897806200173483390190565b6112bf80620004756000396000f3006060604052600436106100db576000357c0100000000000000000000000000000000000000000000000000000000900463ffffffff1680630c08bf88146100f55780632a7d4e121461010a57806343d726d614610133578063512d18ed146101485780635437e4011461017157806363a4c7e5146101b557806380ebb08e146101de5780638c8d2ede146101f3578063d06301d314610248578063d97693891461026b578063daca94ca14610294578063f50ccc74146102e9578063f8473f5614610318578063f90a3ac314610341578063fe25e00a14610378575b34156100e657600080fd5b600015156100f357600080fd5b005b341561010057600080fd5b6101086103cd565b005b341561011557600080fd5b61011d6104f1565b6040518082815260200191505060405180910390f35b341561013e57600080fd5b6101466104f7565b005b341561015357600080fd5b61015b61062f565b6040518082815260200191505060405180910390f35b341561017c57600080fd5b6101b3600480803573ffffffffffffffffffffffffffffffffffffffff169060200190919080351515906020019091905050610635565b005b34156101c057600080fd5b6101c8610e58565b6040518082815260200191505060405180910390f35b34156101e957600080fd5b6101f1610e5e565b005b34156101fe57600080fd5b610206611029565b604051808273ffffffffffffffffffffffffffffffffffffffff1673ffffffffffffffffffffffffffffffffffffffff16815260200191505060405180910390f35b341561025357600080fd5b610269600480803590602001909190505061104f565b005b341561027657600080fd5b61027e611216565b6040518082815260200191505060405180910390f35b341561029f57600080fd5b6102a761121c565b604051808273ffffffffffffffffffffffffffffffffffffffff1673ffffffffffffffffffffffffffffffffffffffff16815260200191505060405180910390f35b34156102f457600080fd5b6102fc611241565b604051808260ff1660ff16815260200191505060405180910390f35b341561032357600080fd5b61032b611254565b6040518082815260200191505060405180910390f35b341561034c57600080fd5b61035461125a565b6040518082600581111561036457fe5b60ff16815260200191505060405180910390f35b341561038357600080fd5b61038b61126d565b604051808273ffffffffffffffffffffffffffffffffffffffff1673ffffffffffffffffffffffffffffffffffffffff16815260200191505060405180910390f35b6007548042101515156103df57600080fd5b600260009054906101000a900473ffffffffffffffffffffffffffffffffffffffff1673ffffffffffffffffffffffffffffffffffffffff1663d4d5d32a3073ffffffffffffffffffffffffffffffffffffffff16316040518263ffffffff167c01000000000000000000000000000000000000000000000000000000000281526004016000604051808303818588803b151561047b57600080fd5b6125ee5a03f1151561048c57600080fd5b5050505060003073ffffffffffffffffffffffffffffffffffffffff16311415156104b657600080fd5b600260009054906101000a900473ffffffffffffffffffffffffffffffffffffffff1673ffffffffffffffffffffffffffffffffffffffff16ff5b60045481565b60065480421015151561050957600080fd5b600754804210151561051a57600080fd5b6001600581111561052757fe5b600260149054906101000a900460ff16600581111561054257fe5b1415801561057657506002600581111561055857fe5b600260149054906101000a900460ff16600581111561057357fe5b14155b80156105a857506003600581111561058a57fe5b600260149054906101000a900460ff1660058111156105a557fe5b14155b15156105b357600080fd5b6003600260146101000a81548160ff021916908360058111156105d257fe5b02179055507f551dc40198cc79684bb69e4931dba4ac16e4598792ee1c0a5000aeea366d7bb6600260149054906101000a900460ff166040518082600581111561061857fe5b60ff16815260200191505060405180910390a15050565b60065481565b600060065480421015151561064957600080fd5b600091506003600581111561065a57fe5b600260149054906101000a900460ff16600581111561067557fe5b14156108565760001515831515141561076e576000809054906101000a900473ffffffffffffffffffffffffffffffffffffffff1673ffffffffffffffffffffffffffffffffffffffff16639d214551856000604051602001526040518263ffffffff167c0100000000000000000000000000000000000000000000000000000000028152600401808273ffffffffffffffffffffffffffffffffffffffff1673ffffffffffffffffffffffffffffffffffffffff168152602001915050602060405180830381600087803b151561074c57600080fd5b6102c65a03f1151561075d57600080fd5b505050604051805190509150610851565b600160009054906101000a900473ffffffffffffffffffffffffffffffffffffffff1673ffffffffffffffffffffffffffffffffffffffff16639d214551856000604051602001526040518263ffffffff167c0100000000000000000000000000000000000000000000000000000000028152600401808273ffffffffffffffffffffffffffffffffffffffff1673ffffffffffffffffffffffffffffffffffffffff168152602001915050602060405180830381600087803b151561083357600080fd5b6102c65a03f1151561084457600080fd5b5050506040518051905091505b610de7565b6001600581111561086357fe5b600260149054906101000a900460ff16600581111561087e57fe5b1415610b1f576000809054906101000a900473ffffffffffffffffffffffffffffffffffffffff1673ffffffffffffffffffffffffffffffffffffffff16639d214551856000604051602001526040518263ffffffff167c0100000000000000000000000000000000000000000000000000000000028152600401808273ffffffffffffffffffffffffffffffffffffffff1673ffffffffffffffffffffffffffffffffffffffff168152602001915050602060405180830381600087803b151561094857600080fd5b6102c65a03f1151561095957600080fd5b505050604051805190509150600160009054906101000a900473ffffffffffffffffffffffffffffffffffffffff1673ffffffffffffffffffffffffffffffffffffffff1663b685f3a0856000809054906101000a900473ffffffffffffffffffffffffffffffffffffffff1673ffffffffffffffffffffffffffffffffffffffff166360c19bee6000604051602001526040518163ffffffff167c0100000000000000000000000000000000000000000000000000000000028152600401602060405180830381600087803b1515610a3157600080fd5b6102c65a03f11515610a4257600080fd5b5050506040518051905085600860009054906101000a900460ff166000604051602001526040518563ffffffff167c0100000000000000000000000000000000000000000000000000000000028152600401808573ffffffffffffffffffffffffffffffffffffffff1673ffffffffffffffffffffffffffffffffffffffff1681526020018481526020018381526020018260ff168152602001945050505050602060405180830381600087803b1515610afb57600080fd5b6102c65a03f11515610b0c57600080fd5b5050506040518051905082019150610de6565b60026005811115610b2c57fe5b600260149054906101000a900460ff166005811115610b4757fe5b1415610de557600160009054906101000a900473ffffffffffffffffffffffffffffffffffffffff1673ffffffffffffffffffffffffffffffffffffffff16639d214551856000604051602001526040518263ffffffff167c0100000000000000000000000000000000000000000000000000000000028152600401808273ffffffffffffffffffffffffffffffffffffffff1673ffffffffffffffffffffffffffffffffffffffff168152602001915050602060405180830381600087803b1515610c1257600080fd5b6102c65a03f11515610c2357600080fd5b5050506040518051905091506000809054906101000a900473ffffffffffffffffffffffffffffffffffffffff1673ffffffffffffffffffffffffffffffffffffffff1663b685f3a085600160009054906101000a900473ffffffffffffffffffffffffffffffffffffffff1673ffffffffffffffffffffffffffffffffffffffff166360c19bee6000604051602001526040518163ffffffff167c0100000000000000000000000000000000000000000000000000000000028152600401602060405180830381600087803b1515610cfb57600080fd5b6102c65a03f11515610d0c57600080fd5b5050506040518051905085600860009054906101000a900460ff166000604051602001526040518563ffffffff167c0100000000000000000000000000000000000000000000000000000000028152600401808573ffffffffffffffffffffffffffffffffffffffff1673ffffffffffffffffffffffffffffffffffffffff1681526020018481526020018381526020018260ff168152602001945050505050602060405180830381600087803b1515610dc557600080fd5b6102c65a03f11515610dd657600080fd5b50505060405180519050820191505b5b5b7f884edad9ce6fa2440d8a54cc123490eb96d2768479d49ff9c7366125a94243648483604051808373ffffffffffffffffffffffffffffffffffffffff1673ffffffffffffffffffffffffffffffffffffffff1681526020018281526020019250505060405180910390a150505050565b60055481565b60006005811115610e6b57fe5b600260149054906101000a900460ff166005811115610e8657fe5b1480610eb7575060046005811115610e9a57fe5b600260149054906101000a900460ff166005811115610eb557fe5b145b1515610ec257600080fd5b600454804210151515610ed457600080fd5b6005600260146101000a81548160ff02191690836005811115610ef357fe5b02179055507f551dc40198cc79684bb69e4931dba4ac16e4598792ee1c0a5000aeea366d7bb6600260149054906101000a900460ff1660405180826005811115610f3957fe5b60ff16815260200191505060405180910390a1600260009054906101000a900473ffffffffffffffffffffffffffffffffffffffff1673ffffffffffffffffffffffffffffffffffffffff16639f3d7b0b306005546040518363ffffffff167c0100000000000000000000000000000000000000000000000000000000028152600401808373ffffffffffffffffffffffffffffffffffffffff1673ffffffffffffffffffffffffffffffffffffffff16815260200182815260200192505050600060405180830381600087803b151561101257600080fd5b6102c65a03f1151561102357600080fd5b50505050565b600160009054906101000a900473ffffffffffffffffffffffffffffffffffffffff1681565b600260009054906101000a900473ffffffffffffffffffffffffffffffffffffffff1673ffffffffffffffffffffffffffffffffffffffff163373ffffffffffffffffffffffffffffffffffffffff161415156110ab57600080fd5b6004548042101515156110bd57600080fd5b60055480421015156110ce57600080fd5b6005808111156110da57fe5b600260149054906101000a900460ff1660058111156110f557fe5b14151561110157600080fd5b6001831415611133576001600260146101000a81548160ff0219169083600581111561112957fe5b02179055506111bd565b60028314156111645760028060146101000a81548160ff0219169083600581111561115a57fe5b02179055506111bc565b6003831415611196576003600260146101000a81548160ff0219169083600581111561118c57fe5b02179055506111bb565b6004600260146101000a81548160ff021916908360058111156111b557fe5b02179055505b5b5b7f551dc40198cc79684bb69e4931dba4ac16e4598792ee1c0a5000aeea366d7bb6600260149054906101000a900460ff16604051808260058111156111fe57fe5b60ff16815260200191505060405180910390a1505050565b60035481565b6000809054906101000a900473ffffffffffffffffffffffffffffffffffffffff1681565b600860009054906101000a900460ff1681565b60075481565b600260149054906101000a900460ff1681565b600260009054906101000a900473ffffffffffffffffffffffffffffffffffffffff16815600a165627a7a723058201b07f0bd03e43c37790561fd37c68df9b23176fe4189398908bf7d3aee332a0d00296060604052341561000f57600080fd5b604051610897380380610897833981016040528080518201919050508060009080519060200190610041929190610089565b5033600360006101000a81548173ffffffffffffffffffffffffffffffffffffffff021916908373ffffffffffffffffffffffffffffffffffffffff1602179055505061012e565b828054600181600116156101000203166002900490600052602060002090601f016020900481019282601f106100ca57805160ff19168380011785556100f8565b828001600101855582156100f8579182015b828111156100f75782518255916020019190600101906100dc565b5b5090506101059190610109565b5090565b61012b91905b8082111561012757600081600090555060010161010f565b5090565b90565b61075a8061013d6000396000f30060606040526004361061006c576000357c0100000000000000000000000000000000000000000000000000000000900463ffffffff16806225a7481461025557806306fdde03146102a257806360c19bee146103305780639d21455114610359578063b685f3a0146103a6575b6000600360009054906101000a900473ffffffffffffffffffffffffffffffffffffffff1673ffffffffffffffffffffffffffffffffffffffff1663d97693896000604051602001526040518163ffffffff167c0100000000000000000000000000000000000000000000000000000000028152600401602060405180830381600087803b15156100fc57600080fd5b6102c65a03f1151561010d57600080fd5b50505060405180519050804210151561012557600080fd5b60003411151561013457600080fd5b6000600260003373ffffffffffffffffffffffffffffffffffffffff1673ffffffffffffffffffffffffffffffffffffffff1681526020019081526020016000205414151561018257600080fd5b6001549150813483011015151561019857600080fd5b3460016000828254019250508190555081600154101515156101b657fe5b34600260003373ffffffffffffffffffffffffffffffffffffffff1673ffffffffffffffffffffffffffffffffffffffff168152602001908152602001600020600082825401925050819055503373ffffffffffffffffffffffffffffffffffffffff167f15f528ef064d916438cdf46f2b272384a7e9459ab69445d805472aa3dfe1535e346040518082815260200191505060405180910390a25050005b341561026057600080fd5b61028c600480803573ffffffffffffffffffffffffffffffffffffffff1690602001909190505061040e565b6040518082815260200191505060405180910390f35b34156102ad57600080fd5b6102b5610426565b6040518080602001828103825283818151815260200191508051906020019080838360005b838110156102f55780820151818401526020810190506102da565b50505050905090810190601f1680156103225780820380516001836020036101000a031916815260200191505b509250505060405180910390f35b341561033b57600080fd5b6103436104c4565b6040518082815260200191505060405180910390f35b341561036457600080fd5b610390600480803573ffffffffffffffffffffffffffffffffffffffff169060200190919050506104ca565b6040518082815260200191505060405180910390f35b34156103b157600080fd5b6103f8600480803573ffffffffffffffffffffffffffffffffffffffff169060200190919080359060200190919080359060200190919080359060200190919050506105f9565b6040518082815260200191505060405180910390f35b60026020528060005260406000206000915090505481565b60008054600181600116156101000203166002900480601f0160208091040260200160405190810160405280929190818152602001828054600181600116156101000203166002900480156104bc5780601f10610491576101008083540402835291602001916104bc565b820191906000526020600020905b81548152906001019060200180831161049f57829003601f168201915b505050505081565b60015481565b600080600360009054906101000a900473ffffffffffffffffffffffffffffffffffffffff1673ffffffffffffffffffffffffffffffffffffffff163373ffffffffffffffffffffffffffffffffffffffff1614151561052957600080fd5b600260008473ffffffffffffffffffffffffffffffffffffffff1673ffffffffffffffffffffffffffffffffffffffff1681526020019081526020016000205490506000600260008573ffffffffffffffffffffffffffffffffffffffff1673ffffffffffffffffffffffffffffffffffffffff168152602001908152602001600020819055508273ffffffffffffffffffffffffffffffffffffffff166108fc829081150290604051600060405180830381858888f1935050505015156105f057600080fd5b80915050919050565b600080600080600080600360009054906101000a900473ffffffffffffffffffffffffffffffffffffffff1673ffffffffffffffffffffffffffffffffffffffff163373ffffffffffffffffffffffffffffffffffffffff1614151561065e57600080fd5b878981151561066957fe5b0494506000851015801561067e575060018511155b151561068657fe5b60015485029350600154841115151561069b57fe5b86840292508383101515156106af57600080fd5b6064838115156106bb57fe5b0491508382111515156106ca57fe5b83905081840393508084111515156106de57fe5b8973ffffffffffffffffffffffffffffffffffffffff166108fc859081150290604051600060405180830381858888f19350505050151561071e57600080fd5b83955050505050509493505050505600a165627a7a723058203e27f2cc048ec6a6401977f29208d293544bb8164da3f4ba1c181b53e98348120029",
  "source": "/* Copyright (C) 2017 ethbets\n * All rights reserved.\n * \n * This software may be modified and distributed under the terms\n * of the BSD license. See the LICENSE file for details.\n*/\n\npragma solidity ^0.4.11;\n\nimport './ERC20.sol';\nimport './teamBet.sol';\nimport './governance/governanceInterface.sol';\nimport './betlib.sol';\n\ncontract Bet is ProposalInterface {\n  modifier onlyArbiter() {\n    require(msg.sender == address(arbiter));\n    _;\n  }\n  modifier beforeTimestamp(uint timestamp) {\n    require(block.timestamp < timestamp);\n    _;\n  }\n  modifier afterTimestamp(uint timestamp) {\n    require(block.timestamp >= timestamp);\n    _;\n  }\n  modifier matchIsOpenOrUndecided() {\n    require(betState == BET_STATES.OPEN || betState == BET_STATES.UNDECIDED);\n    _;\n  }\n  modifier matchIsDecided() {\n    require(betState == BET_STATES.TEAM_ZERO_WON ||\n            betState == BET_STATES.TEAM_ONE_WON ||\n            betState == BET_STATES.DRAW);\n    _;\n  }\n  modifier matchIsNotDecided() {\n    require(betState != BET_STATES.TEAM_ZERO_WON &&\n            betState != BET_STATES.TEAM_ONE_WON &&\n            betState != BET_STATES.DRAW);\n    _;\n  }\n\n  enum BET_STATES {\n    OPEN,\n    TEAM_ZERO_WON,\n    TEAM_ONE_WON,\n    DRAW,\n    UNDECIDED,\n    CALLED_RESOLVER\n  }\n  \n  TeamBet public team0;\n  TeamBet public team1;\n\n  // Governance account\n  GovernanceInterface public arbiter;\n  // Bet State\n  BET_STATES public betState = BET_STATES.OPEN;\n  \n  // Chronology data\n  // Match begin\n  uint public timestampMatchBegin;\n  // Match end\n  uint public timestampMatchEnd;\n  // Arbiter must vote until\n  uint public timestampArbiterDeadline;\n  // Appeals can be made (withdraw can be made after that time only)\n  uint public timestampAppealsDeadline;\n  // Self-destruct is possible if time > timestampSelfDestructDeadline\n  uint public timestampSelfDestructDeadline;\n\n  uint8 public ARBITER_TAX;\n  uint constant TIMESTAMP_MARGIN = 1000;\n\n  event StateChanged(BET_STATES state);\n  event Withdraw(address winner, uint amount);\n\n  function Bet(GovernanceInterface _arbiter, string _team0Name, \n               string _team1Name, uint[] _timestamps, uint8 _tax\n               ) {\n    require(block.timestamp < _timestamps[0]);\n    require(_timestamps[0] < _timestamps[1]);\n    require(_timestamps[1] < _timestamps[2]);\n    require(_timestamps[2] < _timestamps[3]);\n    require(_timestamps[3] < _timestamps[4]);\n\n    arbiter = _arbiter;\n    \n    team0 = new TeamBet(_team0Name);\n    team1 = new TeamBet(_team1Name);\n    // TODO: PUT BACK TIMESTAMP_MARGIN SUMS\n    timestampMatchBegin = _timestamps[0];// - TIMESTAMP_MARGIN;\n    timestampMatchEnd = _timestamps[1];// + TIMESTAMP_MARGIN;\n    timestampArbiterDeadline = _timestamps[2];// + TIMESTAMP_MARGIN;\n    timestampAppealsDeadline = _timestamps[3];// + TIMESTAMP_MARGIN;\n    timestampSelfDestructDeadline = _timestamps[4];// + TIMESTAMP_MARGIN;\n    ARBITER_TAX = _tax;\n  }\n\n  function __resolve(uint outcome)\n    onlyArbiter()\n    afterTimestamp(timestampMatchEnd)\n    beforeTimestamp(timestampArbiterDeadline) {\n    require(betState == BET_STATES.CALLED_RESOLVER);\n    if (outcome == 1)\n      betState = BET_STATES.TEAM_ZERO_WON;\n    else if (outcome == 2)\n      betState = BET_STATES.TEAM_ONE_WON;\n    else if (outcome == 3)\n      betState = BET_STATES.DRAW;\n    else\n      betState = BET_STATES.UNDECIDED;\n    StateChanged(betState);\n  }\n\n  // Will create a Proposal on the arbiter\n  function updateResult()\n    matchIsOpenOrUndecided()\n    afterTimestamp(timestampMatchEnd) {\n    betState = BET_STATES.CALLED_RESOLVER;\n    StateChanged(betState);\n    arbiter.addProposal(this, timestampArbiterDeadline);\n  }\n  // team = 0 : team 0\n  // team = 1 : team 1\n  function withdraw(address winner, bool team)\n    afterTimestamp(timestampAppealsDeadline) {\n    uint profit = 0;\n    if (betState == BET_STATES.DRAW) {\n      if (team == false)\n        profit = team0.getOriginalBet(winner);\n      else\n        profit = team1.getOriginalBet(winner);\n    }\n    else if (betState == BET_STATES.TEAM_ZERO_WON) {\n      profit = team0.getOriginalBet(winner);\n      profit += team1.collectProfit(winner, team0.betSum(), profit, ARBITER_TAX);\n    }\n    else if (betState == BET_STATES.TEAM_ONE_WON) {\n      profit = team1.getOriginalBet(winner);\n      profit += team0.collectProfit(winner, team1.betSum(), profit, ARBITER_TAX);\n    }\n    Withdraw(winner, profit);\n  }\n\n  /* After the arbiter appeals deadline and before the self-destruct\n   * deadline, anyone can set the bet state to DRAW.\n   * this is in the unlikely event if the arbiter don't\n   * decide in time, every one can collect the funds.\n  */\n  function close()\n    afterTimestamp(timestampAppealsDeadline)\n    beforeTimestamp(timestampSelfDestructDeadline) \n    matchIsNotDecided() {\n      betState = BET_STATES.DRAW;\n      StateChanged(betState);\n  }\n\n  /* Selfdestructs the bet and return what it has in the account\n   * as a fee to the bet's arbiter.\n   */\n  function terminate()\n    afterTimestamp(timestampSelfDestructDeadline) {\n    arbiter.collectFee.value(this.balance)();\n    require(this.balance == 0);\n    selfdestruct(arbiter);\n  }\n\n  /* Fallback just throws now\n   * Can do something, maybe increase the value of both pools\n  */\n  function () { require(false); }\n}\n",
  "sourcePath": "/Users/fynn/GIT/ebets/contracts/bet.sol",
  "compiler": {
    "name": "solc",
    "version": "0.4.18+commit.9cf6e910.Emscripten.clang"
  },
  "schemaVersion": "1.0.1",
  "updatedAt": "2018-01-09T18:38:24.453Z"
}