{
  "contractName": "Monarchy",
  "abi": [
    {
      "constant": true,
      "inputs": [],
      "name": "name",
      "outputs": [
        {
          "name": "",
          "type": "string"
        }
      ],
      "payable": false,
      "stateMutability": "view",
      "type": "function"
    },
    {
      "constant": true,
      "inputs": [
        {
          "name": "",
          "type": "address"
        }
      ],
      "name": "members",
      "outputs": [
        {
          "name": "",
          "type": "uint256"
        }
      ],
      "payable": false,
      "stateMutability": "view",
      "type": "function"
    },
    {
      "constant": false,
      "inputs": [
        {
          "name": "",
          "type": "address"
        }
      ],
      "name": "removeMember",
      "outputs": [],
      "payable": false,
      "stateMutability": "nonpayable",
      "type": "function"
    },
    {
      "constant": true,
      "inputs": [],
      "name": "getName",
      "outputs": [
        {
          "name": "",
          "type": "string"
        }
      ],
      "payable": false,
      "stateMutability": "view",
      "type": "function"
    },
    {
      "constant": true,
      "inputs": [
        {
          "name": "",
          "type": "address"
        }
      ],
      "name": "proposals",
      "outputs": [
        {
          "name": "quorumNeeded",
          "type": "uint256"
        },
        {
          "name": "deadline",
          "type": "uint256"
        }
      ],
      "payable": false,
      "stateMutability": "view",
      "type": "function"
    },
    {
      "constant": false,
      "inputs": [
        {
          "name": "proposalAddress",
          "type": "address"
        },
        {
          "name": "deadline",
          "type": "uint256"
        }
      ],
      "name": "addProposal",
      "outputs": [],
      "payable": false,
      "stateMutability": "nonpayable",
      "type": "function"
    },
    {
      "constant": true,
      "inputs": [
        {
          "name": "user",
          "type": "address"
        }
      ],
      "name": "isMember",
      "outputs": [
        {
          "name": "member",
          "type": "bool"
        }
      ],
      "payable": false,
      "stateMutability": "view",
      "type": "function"
    },
    {
      "constant": false,
      "inputs": [
        {
          "name": "member",
          "type": "address"
        }
      ],
      "name": "addMember",
      "outputs": [],
      "payable": false,
      "stateMutability": "nonpayable",
      "type": "function"
    },
    {
      "constant": true,
      "inputs": [],
      "name": "higherInstance",
      "outputs": [
        {
          "name": "",
          "type": "address"
        }
      ],
      "payable": false,
      "stateMutability": "view",
      "type": "function"
    },
    {
      "constant": false,
      "inputs": [],
      "name": "collectFee",
      "outputs": [],
      "payable": true,
      "stateMutability": "payable",
      "type": "function"
    },
    {
      "constant": true,
      "inputs": [],
      "name": "getHigherInstance",
      "outputs": [
        {
          "name": "instanceAddress",
          "type": "address"
        }
      ],
      "payable": false,
      "stateMutability": "view",
      "type": "function"
    },
    {
      "constant": false,
      "inputs": [
        {
          "name": "proposal",
          "type": "address"
        },
        {
          "name": "outcome",
          "type": "uint256"
        }
      ],
      "name": "castVote",
      "outputs": [],
      "payable": false,
      "stateMutability": "nonpayable",
      "type": "function"
    },
    {
      "inputs": [],
      "payable": false,
      "stateMutability": "nonpayable",
      "type": "constructor"
    },
    {
      "anonymous": false,
      "inputs": [
        {
          "indexed": false,
          "name": "newMember",
          "type": "address"
        }
      ],
      "name": "AddedMember",
      "type": "event"
    },
    {
      "anonymous": false,
      "inputs": [
        {
          "indexed": false,
          "name": "reference",
          "type": "address"
        },
        {
          "indexed": false,
          "name": "deadline",
          "type": "uint256"
        },
        {
          "indexed": false,
          "name": "quorum",
          "type": "uint256"
        }
      ],
      "name": "AddedProposal",
      "type": "event"
    },
    {
      "anonymous": false,
      "inputs": [
        {
          "indexed": false,
          "name": "reference",
          "type": "address"
        },
        {
          "indexed": false,
          "name": "outcome",
          "type": "uint256"
        }
      ],
      "name": "ResolvedProposal",
      "type": "event"
    },
    {
      "anonymous": false,
      "inputs": [
        {
          "indexed": false,
          "name": "removedMember",
          "type": "address"
        }
      ],
      "name": "RemovedMember",
      "type": "event"
    }
  ],
  "bytecode": "0x60606040526040805190810160405280600881526020017f4d6f6e61726368790000000000000000000000000000000000000000000000008152506003908051906020019061004f9291906100a4565b50341561005b57600080fd5b60016000803373ffffffffffffffffffffffffffffffffffffffff1673ffffffffffffffffffffffffffffffffffffffff16815260200190815260200160002081905550610149565b828054600181600116156101000203166002900490600052602060002090601f016020900481019282601f106100e557805160ff1916838001178555610113565b82800160010185558215610113579182015b828111156101125782518255916020019190600101906100f7565b5b5090506101209190610124565b5090565b61014691905b8082111561014257600081600090555060010161012a565b5090565b90565b610c18806101586000396000f3006060604052600436106100ba576000357c0100000000000000000000000000000000000000000000000000000000900463ffffffff16806306fdde03146100bf57806308ae4b0c1461014d5780630b1ca49a1461019a57806317d7de7c146101d35780633341b445146102615780639f3d7b0b146102b5578063a230c524146102f7578063ca6d56dc14610348578063d434af1b14610381578063d4d5d32a146103d6578063d5375a5c146103e0578063ff91bb4514610435575b600080fd5b34156100ca57600080fd5b6100d2610477565b6040518080602001828103825283818151815260200191508051906020019080838360005b838110156101125780820151818401526020810190506100f7565b50505050905090810190601f16801561013f5780820380516001836020036101000a031916815260200191505b509250505060405180910390f35b341561015857600080fd5b610184600480803573ffffffffffffffffffffffffffffffffffffffff16906020019091905050610515565b6040518082815260200191505060405180910390f35b34156101a557600080fd5b6101d1600480803573ffffffffffffffffffffffffffffffffffffffff1690602001909190505061052d565b005b34156101de57600080fd5b6101e6610628565b6040518080602001828103825283818151815260200191508051906020019080838360005b8381101561022657808201518184015260208101905061020b565b50505050905090810190601f1680156102535780820380516001836020036101000a031916815260200191505b509250505060405180910390f35b341561026c57600080fd5b610298600480803573ffffffffffffffffffffffffffffffffffffffff169060200190919050506106d0565b604051808381526020018281526020019250505060405180910390f35b34156102c057600080fd5b6102f5600480803573ffffffffffffffffffffffffffffffffffffffff169060200190919080359060200190919050506106f4565b005b341561030257600080fd5b61032e600480803573ffffffffffffffffffffffffffffffffffffffff16906020019091905050610812565b604051808215151515815260200191505060405180910390f35b341561035357600080fd5b61037f600480803573ffffffffffffffffffffffffffffffffffffffff1690602001909190505061085d565b005b341561038c57600080fd5b6103946108ef565b604051808273ffffffffffffffffffffffffffffffffffffffff1673ffffffffffffffffffffffffffffffffffffffff16815260200191505060405180910390f35b6103de610915565b005b34156103eb57600080fd5b6103f3610a21565b604051808273ffffffffffffffffffffffffffffffffffffffff1673ffffffffffffffffffffffffffffffffffffffff16815260200191505060405180910390f35b341561044057600080fd5b610475600480803573ffffffffffffffffffffffffffffffffffffffff16906020019091908035906020019091905050610a4b565b005b60038054600181600116156101000203166002900480601f01602080910402602001604051908101604052809291908181526020018280546001816001161561010002031660029004801561050d5780601f106104e25761010080835404028352916020019161050d565b820191906000526020600020905b8154815290600101906020018083116104f057829003601f168201915b505050505081565b60006020528060005260406000206000915090505481565b60016000803373ffffffffffffffffffffffffffffffffffffffff1673ffffffffffffffffffffffffffffffffffffffff168152602001908152602001600020541015151561057b57600080fd5b60008060003373ffffffffffffffffffffffffffffffffffffffff1673ffffffffffffffffffffffffffffffffffffffff168152602001908152602001600020819055506001600080600460009054906101000a900473ffffffffffffffffffffffffffffffffffffffff1673ffffffffffffffffffffffffffffffffffffffff1673ffffffffffffffffffffffffffffffffffffffff1681526020019081526020016000208190555050565b610630610bd8565b60038054600181600116156101000203166002900480601f0160208091040260200160405190810160405280929190818152602001828054600181600116156101000203166002900480156106c65780601f1061069b576101008083540402835291602001916106c6565b820191906000526020600020905b8154815290600101906020018083116106a957829003601f168201915b5050505050905090565b60026020528060005260406000206000915090508060000154908060010154905082565b804210151561070257600080fd5b6000600260008473ffffffffffffffffffffffffffffffffffffffff1673ffffffffffffffffffffffffffffffffffffffff1681526020019081526020016000206001015414151561075357600080fd5b80600260008473ffffffffffffffffffffffffffffffffffffffff1673ffffffffffffffffffffffffffffffffffffffff168152602001908152602001600020600101819055507f9a0f214cec30613ff47f79877c483e1024955c9c102f9efaee828dece6d7691b82826000604051808473ffffffffffffffffffffffffffffffffffffffff1673ffffffffffffffffffffffffffffffffffffffff168152602001838152602001828152602001935050505060405180910390a15050565b600060016000808473ffffffffffffffffffffffffffffffffffffffff1673ffffffffffffffffffffffffffffffffffffffff16815260200190815260200160002054149050919050565b60016000803373ffffffffffffffffffffffffffffffffffffffff1673ffffffffffffffffffffffffffffffffffffffff16815260200190815260200160002054101515156108ab57600080fd5b80600460006101000a81548173ffffffffffffffffffffffffffffffffffffffff021916908373ffffffffffffffffffffffffffffffffffffffff16021790555050565b600160009054906101000a900473ffffffffffffffffffffffffffffffffffffffff1681565b600073ffffffffffffffffffffffffffffffffffffffff16600160009054906101000a900473ffffffffffffffffffffffffffffffffffffffff1673ffffffffffffffffffffffffffffffffffffffff16141515610a1f57600160009054906101000a900473ffffffffffffffffffffffffffffffffffffffff1673ffffffffffffffffffffffffffffffffffffffff1663d4d5d32a3073ffffffffffffffffffffffffffffffffffffffff16316040518263ffffffff167c01000000000000000000000000000000000000000000000000000000000281526004016000604051808303818588803b1515610a0957600080fd5b6125ee5a03f11515610a1a57600080fd5b505050505b565b6000600160009054906101000a900473ffffffffffffffffffffffffffffffffffffffff16905090565b600060016000803373ffffffffffffffffffffffffffffffffffffffff1673ffffffffffffffffffffffffffffffffffffffff1681526020019081526020016000205410151515610a9b57600080fd5b8290508073ffffffffffffffffffffffffffffffffffffffff1663d06301d3836040518263ffffffff167c010000000000000000000000000000000000000000000000000000000002815260040180828152602001915050600060405180830381600087803b1515610b0c57600080fd5b6102c65a03f11515610b1d57600080fd5b5050506000600260008573ffffffffffffffffffffffffffffffffffffffff1673ffffffffffffffffffffffffffffffffffffffff168152602001908152602001600020600101819055507faafca3b676bb5cecdf88ea163537e60aaec6e28fecf7d16aaafedee936f450e08383604051808373ffffffffffffffffffffffffffffffffffffffff1673ffffffffffffffffffffffffffffffffffffffff1681526020018281526020019250505060405180910390a1505050565b6020604051908101604052806000815250905600a165627a7a72305820aa386b7394f101ebbd30de7c956ec1afd283b9f71b629d856ac51d7bde6dfdbb0029",
  "source": "/* Copyright (C) 2017 ethbets\n * All rights reserved.\n * \n * This software may be modified and distributed under the terms\n * of the BSD license. See the LICENSE file for details.\n*/\n\npragma solidity ^0.4.11;\nimport './governance.sol';\n\ncontract Monarchy is Governance {\n  string public name = \"Monarchy\";\n  address successor;\n  modifier onlyMonarch() {\n    require(members[msg.sender] >= 1);\n    _;\n  }\n\n  function Monarchy() {\n    members[msg.sender] = 1;\n  }\n  function isMember(address user) constant returns(bool member) {\n    return (members[user] == 1);\n  }\n  function getName() constant returns(string) {\n    return name;\n  }\n  function getHigherInstance() constant returns(address instanceAddress) {\n    return higherInstance;\n  }\n\n  function castVote(address proposal, uint outcome) onlyMonarch() {\n    ProposalInterface proposalContract = ProposalInterface(proposal);\n    proposalContract.__resolve(outcome);\n    // \"delete\" proposal\n    proposals[proposal].deadline = 0;\n    ResolvedProposal(proposal, outcome);\n  }\n  function addProposal(address proposalAddress, uint deadline) {\n    require(block.timestamp < deadline);\n    // Allow one proposal per bet\n    require(proposals[proposalAddress].deadline == 0);\n    proposals[proposalAddress].deadline = deadline;\n    AddedProposal(proposalAddress, deadline, 0);\n  }\n  \n  function addMember(address member) onlyMonarch() { \n    successor = member; \n  }\n  \n  function removeMember(address /*member*/) onlyMonarch() {\n    members[msg.sender] = 0;\n    members[successor] = 1;\n  }\n}\n",
  "sourcePath": "/Users/fynn/GIT/ebets/contracts/governance/monarchy.sol",
  "compiler": {
    "name": "solc",
    "version": "0.4.18+commit.9cf6e910.Emscripten.clang"
  },
  "schemaVersion": "1.0.1",
  "updatedAt": "2018-01-09T18:38:24.455Z"
}