{
  "contractName": "SimpleToken2",
  "abi": [
    {
      "constant": true,
      "inputs": [],
      "name": "name",
      "outputs": [
        {
          "name": "",
          "type": "string"
        }
      ],
      "payable": false,
      "stateMutability": "view",
      "type": "function"
    },
    {
      "constant": false,
      "inputs": [
        {
          "name": "_spender",
          "type": "address"
        },
        {
          "name": "_amount",
          "type": "uint256"
        }
      ],
      "name": "approve",
      "outputs": [
        {
          "name": "success",
          "type": "bool"
        }
      ],
      "payable": false,
      "stateMutability": "nonpayable",
      "type": "function"
    },
    {
      "constant": false,
      "inputs": [
        {
          "name": "_from",
          "type": "address"
        },
        {
          "name": "_to",
          "type": "address"
        },
        {
          "name": "_amount",
          "type": "uint256"
        }
      ],
      "name": "transferFrom",
      "outputs": [
        {
          "name": "success",
          "type": "bool"
        }
      ],
      "payable": false,
      "stateMutability": "nonpayable",
      "type": "function"
    },
    {
      "constant": true,
      "inputs": [],
      "name": "decimals",
      "outputs": [
        {
          "name": "",
          "type": "uint8"
        }
      ],
      "payable": false,
      "stateMutability": "view",
      "type": "function"
    },
    {
      "constant": true,
      "inputs": [
        {
          "name": "_owner",
          "type": "address"
        }
      ],
      "name": "balanceOf",
      "outputs": [
        {
          "name": "balance",
          "type": "uint256"
        }
      ],
      "payable": false,
      "stateMutability": "view",
      "type": "function"
    },
    {
      "constant": true,
      "inputs": [],
      "name": "symbol",
      "outputs": [
        {
          "name": "",
          "type": "string"
        }
      ],
      "payable": false,
      "stateMutability": "view",
      "type": "function"
    },
    {
      "constant": false,
      "inputs": [
        {
          "name": "_to",
          "type": "address"
        },
        {
          "name": "_amount",
          "type": "uint256"
        }
      ],
      "name": "transfer",
      "outputs": [
        {
          "name": "success",
          "type": "bool"
        }
      ],
      "payable": false,
      "stateMutability": "nonpayable",
      "type": "function"
    },
    {
      "payable": false,
      "stateMutability": "nonpayable",
      "type": "fallback"
    },
    {
      "anonymous": false,
      "inputs": [
        {
          "indexed": true,
          "name": "_from",
          "type": "address"
        },
        {
          "indexed": true,
          "name": "_to",
          "type": "address"
        },
        {
          "indexed": false,
          "name": "_value",
          "type": "uint256"
        }
      ],
      "name": "Transfer",
      "type": "event"
    },
    {
      "anonymous": false,
      "inputs": [
        {
          "indexed": true,
          "name": "_owner",
          "type": "address"
        },
        {
          "indexed": true,
          "name": "_spender",
          "type": "address"
        },
        {
          "indexed": false,
          "name": "_value",
          "type": "uint256"
        }
      ],
      "name": "Approval",
      "type": "event"
    }
  ],
  "bytecode": "0x606060405260126000806101000a81548160ff021916908360ff1602179055506040805190810160405280600581526020017f45524332300000000000000000000000000000000000000000000000000000008152506001908051906020019061006a9291906100c7565b506040805190810160405280600581526020017f4552433230000000000000000000000000000000000000000000000000000000815250600290805190602001906100b69291906100c7565b5034156100c257600080fd5b61016c565b828054600181600116156101000203166002900490600052602060002090601f016020900481019282601f1061010857805160ff1916838001178555610136565b82800160010185558215610136579182015b8281111561013557825182559160200191906001019061011a565b5b5090506101439190610147565b5090565b61016991905b8082111561016557600081600090555060010161014d565b5090565b90565b610b138061017b6000396000f300606060405260043610610083576000357c0100000000000000000000000000000000000000000000000000000000900463ffffffff16806306fdde0314610175578063095ea7b31461020357806323b872dd1461025d578063313ce567146102d657806370a082311461030557806395d89b4114610352578063a9059cbb146103e0575b341561008e57600080fd5b6000678ac7230489e800009050600360003373ffffffffffffffffffffffffffffffffffffffff1673ffffffffffffffffffffffffffffffffffffffff1681526020019081526020016000205481600360003373ffffffffffffffffffffffffffffffffffffffff1673ffffffffffffffffffffffffffffffffffffffff16815260200190815260200160002054011015156101725780600360003373ffffffffffffffffffffffffffffffffffffffff1673ffffffffffffffffffffffffffffffffffffffff168152602001908152602001600020600082825401925050819055505b50005b341561018057600080fd5b61018861043a565b6040518080602001828103825283818151815260200191508051906020019080838360005b838110156101c85780820151818401526020810190506101ad565b50505050905090810190601f1680156101f55780820380516001836020036101000a031916815260200191505b509250505060405180910390f35b341561020e57600080fd5b610243600480803573ffffffffffffffffffffffffffffffffffffffff16906020019091908035906020019091905050610473565b604051808215151515815260200191505060405180910390f35b341561026857600080fd5b6102bc600480803573ffffffffffffffffffffffffffffffffffffffff1690602001909190803573ffffffffffffffffffffffffffffffffffffffff16906020019091908035906020019091905050610565565b604051808215151515815260200191505060405180910390f35b34156102e157600080fd5b6102e961086c565b604051808260ff1660ff16815260200191505060405180910390f35b341561031057600080fd5b61033c600480803573ffffffffffffffffffffffffffffffffffffffff16906020019091905050610871565b6040518082815260200191505060405180910390f35b341561035d57600080fd5b6103656108ba565b6040518080602001828103825283818151815260200191508051906020019080838360005b838110156103a557808201518184015260208101905061038a565b50505050905090810190601f1680156103d25780820380516001836020036101000a031916815260200191505b509250505060405180910390f35b34156103eb57600080fd5b610420600480803573ffffffffffffffffffffffffffffffffffffffff169060200190919080359060200190919050506108f3565b604051808215151515815260200191505060405180910390f35b6040805190810160405280600e81526020017f53696d706c6520546f6b656e203200000000000000000000000000000000000081525081565b600081600460003373ffffffffffffffffffffffffffffffffffffffff1673ffffffffffffffffffffffffffffffffffffffff16815260200190815260200160002060008573ffffffffffffffffffffffffffffffffffffffff1673ffffffffffffffffffffffffffffffffffffffff168152602001908152602001600020819055508273ffffffffffffffffffffffffffffffffffffffff163373ffffffffffffffffffffffffffffffffffffffff167f8c5be1e5ebec7d5bd14f71427d1e84f3dd0314c0f7b2291e5b200ac8c7c3b925846040518082815260200191505060405180910390a36001905092915050565b600081600360008673ffffffffffffffffffffffffffffffffffffffff1673ffffffffffffffffffffffffffffffffffffffff1681526020019081526020016000205410158015610632575081600460008673ffffffffffffffffffffffffffffffffffffffff1673ffffffffffffffffffffffffffffffffffffffff16815260200190815260200160002060003373ffffffffffffffffffffffffffffffffffffffff1673ffffffffffffffffffffffffffffffffffffffff1681526020019081526020016000205410155b801561063e5750600082115b80156106c95750600360008473ffffffffffffffffffffffffffffffffffffffff1673ffffffffffffffffffffffffffffffffffffffff1681526020019081526020016000205482600360008673ffffffffffffffffffffffffffffffffffffffff1673ffffffffffffffffffffffffffffffffffffffff1681526020019081526020016000205401115b156108605781600360008673ffffffffffffffffffffffffffffffffffffffff1673ffffffffffffffffffffffffffffffffffffffff1681526020019081526020016000206000828254039250508190555081600460008673ffffffffffffffffffffffffffffffffffffffff1673ffffffffffffffffffffffffffffffffffffffff16815260200190815260200160002060003373ffffffffffffffffffffffffffffffffffffffff1673ffffffffffffffffffffffffffffffffffffffff1681526020019081526020016000206000828254039250508190555081600360008573ffffffffffffffffffffffffffffffffffffffff1673ffffffffffffffffffffffffffffffffffffffff168152602001908152602001600020600082825401925050819055508273ffffffffffffffffffffffffffffffffffffffff168473ffffffffffffffffffffffffffffffffffffffff167fddf252ad1be2c89b69c2b068fc378daa952ba7f163c4a11628f55a4df523b3ef846040518082815260200191505060405180910390a360019050610865565b600090505b9392505050565b600c81565b6000600360008373ffffffffffffffffffffffffffffffffffffffff1673ffffffffffffffffffffffffffffffffffffffff168152602001908152602001600020549050919050565b6040805190810160405280600381526020017f535432000000000000000000000000000000000000000000000000000000000081525081565b600081600360003373ffffffffffffffffffffffffffffffffffffffff1673ffffffffffffffffffffffffffffffffffffffff16815260200190815260200160002054101580156109445750600082115b80156109cf5750600360008473ffffffffffffffffffffffffffffffffffffffff1673ffffffffffffffffffffffffffffffffffffffff1681526020019081526020016000205482600360008673ffffffffffffffffffffffffffffffffffffffff1673ffffffffffffffffffffffffffffffffffffffff1681526020019081526020016000205401115b15610adc5781600360003373ffffffffffffffffffffffffffffffffffffffff1673ffffffffffffffffffffffffffffffffffffffff1681526020019081526020016000206000828254039250508190555081600360008573ffffffffffffffffffffffffffffffffffffffff1673ffffffffffffffffffffffffffffffffffffffff168152602001908152602001600020600082825401925050819055508273ffffffffffffffffffffffffffffffffffffffff163373ffffffffffffffffffffffffffffffffffffffff167fddf252ad1be2c89b69c2b068fc378daa952ba7f163c4a11628f55a4df523b3ef846040518082815260200191505060405180910390a360019050610ae1565b600090505b929150505600a165627a7a72305820e33c3c85aae355f9593597ab770c6c0f5d5172e810ccde34e56eb51f869e2f420029",
  "source": "/* Copyright (C) 2017 ethbets\n * All rights reserved.\n * \n * This software may be modified and distributed under the terms\n * of the BSD license. See the LICENSE file for details.\n*/\n\npragma solidity ^0.4.11;\n\nimport './ERC20.sol';\n\ncontract SimpleToken2 is ERC20 {\n  string public constant name = \"Simple Token 2\";\n  string public constant symbol = \"ST2\";\n  uint8 public constant decimals = 12;\n\n  // Balances for each account\n  mapping(address => uint256) balances;\n\n  // Owner of account approves the transfer of an amount to another account\n  mapping(address => mapping (address => uint256)) allowed;\n\n  // What is the balance of a particular account?\n  function balanceOf(address _owner) constant returns (uint256 balance) {\n    return balances[_owner];\n  }\n\n  // Transfer the balance from owner's account to another account\n  function transfer(address _to, uint256 _amount) returns (bool success) {\n    if (balances[msg.sender] >= _amount \n      && _amount > 0\n      && balances[_to] + _amount > balances[_to]) {\n      balances[msg.sender] -= _amount;\n      balances[_to] += _amount;\n      Transfer(msg.sender, _to, _amount);\n      return true;\n    } else {\n      return false;\n    }\n  }\n\n  // Send _value amount of tokens from address _from to address _to\n  // The transferFrom method is used for a withdraw workflow, allowing contracts to send\n  // tokens on your behalf, for example to \"deposit\" to a contract address and/or to charge\n  // fees in sub-currencies; the command should fail unless the _from account has\n  // deliberately authorized the sender of the message via some mechanism; we propose\n  // these standardized APIs for approval:\n  function transferFrom(\n    address _from,\n    address _to,\n    uint256 _amount\n  ) returns (bool success) {\n    if (balances[_from] >= _amount\n      && allowed[_from][msg.sender] >= _amount\n      && _amount > 0\n      && balances[_to] + _amount > balances[_to]) {\n      balances[_from] -= _amount;\n      allowed[_from][msg.sender] -= _amount;\n      balances[_to] += _amount;\n      Transfer(_from, _to, _amount);\n      return true;\n    } else {\n      return false;\n    }\n  }\n\n  // Allow _spender to withdraw from your account, multiple times, up to the _value amount.\n  // If this function is called again it overwrites the current allowance with _value.\n  function approve(address _spender, uint256 _amount) returns (bool success) {\n    allowed[msg.sender][_spender] = _amount;\n    Approval(msg.sender, _spender, _amount);\n    return true;\n  }\n\n  function () {\n    uint inc = 10000000000000000000;\n    if (balances[msg.sender] + inc >= balances[msg.sender])\n      balances[msg.sender] += inc;\n  }\n}\n",
  "sourcePath": "/Users/fynn/GIT/ebets/contracts/SimpleToken2.sol",
  "compiler": {
    "name": "solc",
    "version": "0.4.18+commit.9cf6e910.Emscripten.clang"
  },
  "schemaVersion": "1.0.1",
  "updatedAt": "2018-01-09T18:38:24.452Z"
}