{
  "contractName": "StaticArbiter",
  "abi": [
    {
      "constant": true,
      "inputs": [],
      "name": "name",
      "outputs": [
        {
          "name": "",
          "type": "string"
        }
      ],
      "payable": false,
      "stateMutability": "view",
      "type": "function"
    },
    {
      "constant": true,
      "inputs": [
        {
          "name": "",
          "type": "address"
        }
      ],
      "name": "members",
      "outputs": [
        {
          "name": "",
          "type": "uint256"
        }
      ],
      "payable": false,
      "stateMutability": "view",
      "type": "function"
    },
    {
      "constant": false,
      "inputs": [
        {
          "name": "",
          "type": "address"
        }
      ],
      "name": "removeMember",
      "outputs": [],
      "payable": false,
      "stateMutability": "nonpayable",
      "type": "function"
    },
    {
      "constant": true,
      "inputs": [],
      "name": "getName",
      "outputs": [
        {
          "name": "",
          "type": "string"
        }
      ],
      "payable": false,
      "stateMutability": "view",
      "type": "function"
    },
    {
      "constant": true,
      "inputs": [
        {
          "name": "",
          "type": "address"
        }
      ],
      "name": "proposals",
      "outputs": [
        {
          "name": "quorumNeeded",
          "type": "uint256"
        },
        {
          "name": "deadline",
          "type": "uint256"
        }
      ],
      "payable": false,
      "stateMutability": "view",
      "type": "function"
    },
    {
      "constant": false,
      "inputs": [
        {
          "name": "proposal",
          "type": "address"
        },
        {
          "name": "arbiterVotes",
          "type": "uint256[]"
        }
      ],
      "name": "declareHanged",
      "outputs": [],
      "payable": false,
      "stateMutability": "nonpayable",
      "type": "function"
    },
    {
      "constant": false,
      "inputs": [
        {
          "name": "proposalAddress",
          "type": "address"
        },
        {
          "name": "deadline",
          "type": "uint256"
        }
      ],
      "name": "addProposal",
      "outputs": [],
      "payable": false,
      "stateMutability": "nonpayable",
      "type": "function"
    },
    {
      "constant": true,
      "inputs": [
        {
          "name": "user",
          "type": "address"
        }
      ],
      "name": "isMember",
      "outputs": [
        {
          "name": "member",
          "type": "bool"
        }
      ],
      "payable": false,
      "stateMutability": "view",
      "type": "function"
    },
    {
      "constant": false,
      "inputs": [
        {
          "name": "",
          "type": "address"
        }
      ],
      "name": "addMember",
      "outputs": [],
      "payable": false,
      "stateMutability": "nonpayable",
      "type": "function"
    },
    {
      "constant": true,
      "inputs": [],
      "name": "higherInstance",
      "outputs": [
        {
          "name": "",
          "type": "address"
        }
      ],
      "payable": false,
      "stateMutability": "view",
      "type": "function"
    },
    {
      "constant": false,
      "inputs": [],
      "name": "collectFee",
      "outputs": [],
      "payable": true,
      "stateMutability": "payable",
      "type": "function"
    },
    {
      "constant": true,
      "inputs": [],
      "name": "getHigherInstance",
      "outputs": [
        {
          "name": "instanceAddress",
          "type": "address"
        }
      ],
      "payable": false,
      "stateMutability": "view",
      "type": "function"
    },
    {
      "constant": false,
      "inputs": [
        {
          "name": "proposal",
          "type": "address"
        },
        {
          "name": "outcome",
          "type": "uint256"
        }
      ],
      "name": "castVote",
      "outputs": [],
      "payable": false,
      "stateMutability": "nonpayable",
      "type": "function"
    },
    {
      "inputs": [
        {
          "name": "_name",
          "type": "string"
        },
        {
          "name": "_members",
          "type": "address[]"
        }
      ],
      "payable": false,
      "stateMutability": "nonpayable",
      "type": "constructor"
    },
    {
      "anonymous": false,
      "inputs": [
        {
          "indexed": false,
          "name": "newMember",
          "type": "address"
        }
      ],
      "name": "AddedMember",
      "type": "event"
    },
    {
      "anonymous": false,
      "inputs": [
        {
          "indexed": false,
          "name": "reference",
          "type": "address"
        },
        {
          "indexed": false,
          "name": "deadline",
          "type": "uint256"
        },
        {
          "indexed": false,
          "name": "quorum",
          "type": "uint256"
        }
      ],
      "name": "AddedProposal",
      "type": "event"
    },
    {
      "anonymous": false,
      "inputs": [
        {
          "indexed": false,
          "name": "reference",
          "type": "address"
        },
        {
          "indexed": false,
          "name": "outcome",
          "type": "uint256"
        }
      ],
      "name": "ResolvedProposal",
      "type": "event"
    },
    {
      "anonymous": false,
      "inputs": [
        {
          "indexed": false,
          "name": "removedMember",
          "type": "address"
        }
      ],
      "name": "RemovedMember",
      "type": "event"
    }
  ],
  "bytecode": "0x606060405234156200001057600080fd5b6040516200111738038062001117833981016040528080518201919060200180518201919050506000826003908051906020019062000051929190620000da565b508151600481905550600090505b8151811015620000d157600160008084848151811015156200007d57fe5b9060200190602002015173ffffffffffffffffffffffffffffffffffffffff1673ffffffffffffffffffffffffffffffffffffffff168152602001908152602001600020819055508060010190506200005f565b50505062000189565b828054600181600116156101000203166002900490600052602060002090601f016020900481019282601f106200011d57805160ff19168380011785556200014e565b828001600101855582156200014e579182015b828111156200014d57825182559160200191906001019062000130565b5b5090506200015d919062000161565b5090565b6200018691905b808211156200018257600081600090555060010162000168565b5090565b90565b610f7e80620001996000396000f3006060604052600436106100c5576000357c0100000000000000000000000000000000000000000000000000000000900463ffffffff16806306fdde03146100ca57806308ae4b0c146101585780630b1ca49a146101a557806317d7de7c146101de5780633341b4451461026c5780635c659bdb146102c05780639f3d7b0b14610339578063a230c5241461037b578063ca6d56dc146103cc578063d434af1b14610405578063d4d5d32a1461045a578063d5375a5c14610464578063ff91bb45146104b9575b600080fd5b34156100d557600080fd5b6100dd6104fb565b6040518080602001828103825283818151815260200191508051906020019080838360005b8381101561011d578082015181840152602081019050610102565b50505050905090810190601f16801561014a5780820380516001836020036101000a031916815260200191505b509250505060405180910390f35b341561016357600080fd5b61018f600480803573ffffffffffffffffffffffffffffffffffffffff16906020019091905050610599565b6040518082815260200191505060405180910390f35b34156101b057600080fd5b6101dc600480803573ffffffffffffffffffffffffffffffffffffffff169060200190919050506105b1565b005b34156101e957600080fd5b6101f16105b4565b6040518080602001828103825283818151815260200191508051906020019080838360005b83811015610231578082015181840152602081019050610216565b50505050905090810190601f16801561025e5780820380516001836020036101000a031916815260200191505b509250505060405180910390f35b341561027757600080fd5b6102a3600480803573ffffffffffffffffffffffffffffffffffffffff1690602001909190505061065c565b604051808381526020018281526020019250505060405180910390f35b34156102cb57600080fd5b610337600480803573ffffffffffffffffffffffffffffffffffffffff1690602001909190803590602001908201803590602001908080602002602001604051908101604052809392919081815260200183836020028082843782019150505050505091905050610680565b005b341561034457600080fd5b610379600480803573ffffffffffffffffffffffffffffffffffffffff169060200190919080359060200190919050506108d1565b005b341561038657600080fd5b6103b2600480803573ffffffffffffffffffffffffffffffffffffffff169060200190919050506109d5565b604051808215151515815260200191505060405180910390f35b34156103d757600080fd5b610403600480803573ffffffffffffffffffffffffffffffffffffffff16906020019091905050610a20565b005b341561041057600080fd5b610418610a23565b604051808273ffffffffffffffffffffffffffffffffffffffff1673ffffffffffffffffffffffffffffffffffffffff16815260200191505060405180910390f35b610462610a49565b005b341561046f57600080fd5b610477610b55565b604051808273ffffffffffffffffffffffffffffffffffffffff1673ffffffffffffffffffffffffffffffffffffffff16815260200191505060405180910390f35b34156104c457600080fd5b6104f9600480803573ffffffffffffffffffffffffffffffffffffffff16906020019091908035906020019091905050610b7f565b005b60038054600181600116156101000203166002900480601f0160208091040260200160405190810160405280929190818152602001828054600181600116156101000203166002900480156105915780601f1061056657610100808354040283529160200191610591565b820191906000526020600020905b81548152906001019060200180831161057457829003601f168201915b505050505081565b60006020528060005260406000206000915090505481565b50565b6105bc610f3e565b60038054600181600116156101000203166002900480601f0160208091040260200160405190810160405280929190818152602001828054600181600116156101000203166002900480156106525780601f1061062757610100808354040283529160200191610652565b820191906000526020600020905b81548152906001019060200180831161063557829003601f168201915b5050505050905090565b60026020528060005260406000206000915090508060000154908060010154905082565b600080600080600080600260008973ffffffffffffffffffffffffffffffffffffffff1673ffffffffffffffffffffffffffffffffffffffff168152602001908152602001600020600001541115156106d857600080fd5b6000945060009350600092505b855183101561077757600260008873ffffffffffffffffffffffffffffffffffffffff1673ffffffffffffffffffffffffffffffffffffffff1681526020019081526020016000206003016000878581518110151561074057fe5b90602001906020020151815260200190815260200160002054915083821115610767578193505b81850194508260010192506106e5565b600454851115151561078557fe5b846004540384600260008a73ffffffffffffffffffffffffffffffffffffffff1673ffffffffffffffffffffffffffffffffffffffff168152602001908152602001600020600001540311156108c8578690508073ffffffffffffffffffffffffffffffffffffffff1663d06301d360036040518263ffffffff167c010000000000000000000000000000000000000000000000000000000002815260040180828152602001915050600060405180830381600087803b151561084757600080fd5b6102c65a03f1151561085857600080fd5b5050507faafca3b676bb5cecdf88ea163537e60aaec6e28fecf7d16aaafedee936f450e0876003604051808373ffffffffffffffffffffffffffffffffffffffff1673ffffffffffffffffffffffffffffffffffffffff1681526020018281526020019250505060405180910390a15b50505050505050565b8080421015156108e057600080fd5b6000600260008573ffffffffffffffffffffffffffffffffffffffff1673ffffffffffffffffffffffffffffffffffffffff1681526020019081526020016000206001015414151561093157600080fd5b81600260008573ffffffffffffffffffffffffffffffffffffffff1673ffffffffffffffffffffffffffffffffffffffff168152602001908152602001600020600101819055506001600260045481151561098857fe5b0401600260008573ffffffffffffffffffffffffffffffffffffffff1673ffffffffffffffffffffffffffffffffffffffff16815260200190815260200160002060000181905550505050565b600060016000808473ffffffffffffffffffffffffffffffffffffffff1673ffffffffffffffffffffffffffffffffffffffff16815260200190815260200160002054149050919050565b50565b600160009054906101000a900473ffffffffffffffffffffffffffffffffffffffff1681565b600073ffffffffffffffffffffffffffffffffffffffff16600160009054906101000a900473ffffffffffffffffffffffffffffffffffffffff1673ffffffffffffffffffffffffffffffffffffffff16141515610b5357600160009054906101000a900473ffffffffffffffffffffffffffffffffffffffff1673ffffffffffffffffffffffffffffffffffffffff1663d4d5d32a3073ffffffffffffffffffffffffffffffffffffffff16316040518263ffffffff167c01000000000000000000000000000000000000000000000000000000000281526004016000604051808303818588803b1515610b3d57600080fd5b6125ee5a03f11515610b4e57600080fd5b505050505b565b6000600160009054906101000a900473ffffffffffffffffffffffffffffffffffffffff16905090565b60008060016000803373ffffffffffffffffffffffffffffffffffffffff1673ffffffffffffffffffffffffffffffffffffffff1681526020019081526020016000205410151515610bd057600080fd5b600260008573ffffffffffffffffffffffffffffffffffffffff1673ffffffffffffffffffffffffffffffffffffffff168152602001908152602001600020600101548042101515610c2157600080fd5b6000600260008773ffffffffffffffffffffffffffffffffffffffff1673ffffffffffffffffffffffffffffffffffffffff16815260200190815260200160002060020160003373ffffffffffffffffffffffffffffffffffffffff1673ffffffffffffffffffffffffffffffffffffffff16815260200190815260200160002054141515610caf57600080fd5b60008414151515610cbf57600080fd5b6001600260008773ffffffffffffffffffffffffffffffffffffffff1673ffffffffffffffffffffffffffffffffffffffff168152602001908152602001600020600301600086815260200190815260200160002060008282540192505081905550600260008673ffffffffffffffffffffffffffffffffffffffff1673ffffffffffffffffffffffffffffffffffffffff1681526020019081526020016000206003016000858152602001908152602001600020549250600260008673ffffffffffffffffffffffffffffffffffffffff1673ffffffffffffffffffffffffffffffffffffffff1681526020019081526020016000206000015483101515610eb3578491508173ffffffffffffffffffffffffffffffffffffffff1663d06301d3856040518263ffffffff167c010000000000000000000000000000000000000000000000000000000002815260040180828152602001915050600060405180830381600087803b1515610e3357600080fd5b6102c65a03f11515610e4457600080fd5b5050507faafca3b676bb5cecdf88ea163537e60aaec6e28fecf7d16aaafedee936f450e08585604051808373ffffffffffffffffffffffffffffffffffffffff1673ffffffffffffffffffffffffffffffffffffffff1681526020018281526020019250505060405180910390a15b83600260008773ffffffffffffffffffffffffffffffffffffffff1673ffffffffffffffffffffffffffffffffffffffff16815260200190815260200160002060020160003373ffffffffffffffffffffffffffffffffffffffff1673ffffffffffffffffffffffffffffffffffffffff168152602001908152602001600020819055505050505050565b6020604051908101604052806000815250905600a165627a7a723058201dde78e7af531e8d566cc3c7e3cedeb20a12f8bb64cbfc5df00b0faf184429ab0029",
  "source": "/* Copyright (C) 2017 ethbets\n * All rights reserved.\n * \n * This software may be modified and distributed under the terms\n * of the BSD license. See the LICENSE file for details.\n*/\n\npragma solidity ^0.4.11;\nimport './governance.sol';\n\ncontract StaticArbiter is Governance {\n  string public name;\n  uint nMembers;\n\n  modifier isActiveMember() {\n    require(members[msg.sender] >= 1);\n    _;\n  }\n\n  modifier beforeDeadline(uint deadline) {\n    require(block.timestamp < deadline);\n    _;\n  }\n\n  function StaticArbiter(string _name, address[] _members) {\n    name = _name;\n    nMembers = _members.length;\n    for (uint i = 0; i < _members.length; ++i) {\n      members[_members[i]] = 1;\n    }\n  }\n\n  function isMember(address user) constant returns(bool member) {\n    return (members[user] == 1);\n  }\n  function getName() constant returns(string) {\n    return name;\n  }\n  function getHigherInstance() constant returns(address instanceAddress) {\n    return higherInstance;\n  }\n\n  function castVote(address proposal, uint outcome) \n    isActiveMember\n    beforeDeadline(proposals[proposal].deadline) {\n\n    require(proposals[proposal].voted[msg.sender] == 0); // Did not voted before\n    require(outcome != 0); // Cannot erase vote\n    \n    proposals[proposal].outcomes[outcome] += 1;\n    uint votesInOutcome = proposals[proposal].outcomes[outcome];\n    if (votesInOutcome >= proposals[proposal].quorumNeeded) {\n      ProposalInterface proposalContract = ProposalInterface(proposal);\n      proposalContract.__resolve(outcome);\n      ResolvedProposal(proposal, outcome);\n    }\n    proposals[proposal].voted[msg.sender] = outcome;\n  }\n\n  function declareHanged(address proposal, uint[] arbiterVotes) {\n    require(proposals[proposal].quorumNeeded > 0); // Open proposal\n    uint accountedVotes = 0;\n    uint winningProposalVotes = 0;\n    for (uint idx = 0; idx < arbiterVotes.length; ++idx) {\n      uint votesForIdx = proposals[proposal].outcomes[arbiterVotes[idx]];\n      if (votesForIdx > winningProposalVotes)\n        winningProposalVotes = votesForIdx;\n      accountedVotes += votesForIdx;\n    }\n    assert(accountedVotes <= nMembers);\n    // Is hanged (resolve to draw) TODO: Call higher instance\n    if ((proposals[proposal].quorumNeeded - winningProposalVotes) > nMembers - accountedVotes) {\n      ProposalInterface proposalContract = ProposalInterface(proposal);\n      proposalContract.__resolve(3);\n      ResolvedProposal(proposal, 3);\n    }\n  }\n\n  function addProposal(address proposalAddress, uint deadline) \n    beforeDeadline(deadline)\n  {\n    // Allow one proposal per bet\n    require(proposals[proposalAddress].deadline == 0);\n    proposals[proposalAddress].deadline = deadline;\n    // Require simple majority\n    proposals[proposalAddress].quorumNeeded = nMembers/2 + 1;\n  }\n  \n  // Static arbiter\n  function addMember(address /*member*/) {}\n  function removeMember(address /*member*/) {}\n}",
  "sourcePath": "/Users/fynn/GIT/ebets/contracts/governance/staticArbiter.sol",
  "compiler": {
    "name": "solc",
    "version": "0.4.18+commit.9cf6e910.Emscripten.clang"
  },
  "schemaVersion": "1.0.1",
  "updatedAt": "2018-01-09T18:38:24.455Z"
}